{
  "_format": "hh-sol-artifact-1",
  "contractName": "SwiftERC20",
  "sourceName": "src/SwiftERC20.sol",
  "abi": [
    {
      "inputs": [
        {
          "internalType": "address",
          "name": "msgSender_",
          "type": "address"
        }
      ],
      "name": "OnlySwiftGateError",
      "type": "error"
    },
    {
      "anonymous": false,
      "inputs": [
        {
          "indexed": true,
          "internalType": "address",
          "name": "owner",
          "type": "address"
        },
        {
          "indexed": true,
          "internalType": "address",
          "name": "spender",
          "type": "address"
        },
        {
          "indexed": false,
          "internalType": "uint256",
          "name": "value",
          "type": "uint256"
        }
      ],
      "name": "Approval",
      "type": "event"
    },
    {
      "anonymous": false,
      "inputs": [
        {
          "indexed": false,
          "internalType": "uint8",
          "name": "version",
          "type": "uint8"
        }
      ],
      "name": "Initialized",
      "type": "event"
    },
    {
      "anonymous": false,
      "inputs": [
        {
          "indexed": true,
          "internalType": "address",
          "name": "from",
          "type": "address"
        },
        {
          "indexed": true,
          "internalType": "address",
          "name": "to",
          "type": "address"
        },
        {
          "indexed": false,
          "internalType": "uint256",
          "name": "value",
          "type": "uint256"
        }
      ],
      "name": "Transfer",
      "type": "event"
    },
    {
      "inputs": [
        {
          "internalType": "address",
          "name": "owner",
          "type": "address"
        },
        {
          "internalType": "address",
          "name": "spender",
          "type": "address"
        }
      ],
      "name": "allowance",
      "outputs": [
        {
          "internalType": "uint256",
          "name": "",
          "type": "uint256"
        }
      ],
      "stateMutability": "view",
      "type": "function"
    },
    {
      "inputs": [
        {
          "internalType": "address",
          "name": "spender",
          "type": "address"
        },
        {
          "internalType": "uint256",
          "name": "amount",
          "type": "uint256"
        }
      ],
      "name": "approve",
      "outputs": [
        {
          "internalType": "bool",
          "name": "",
          "type": "bool"
        }
      ],
      "stateMutability": "nonpayable",
      "type": "function"
    },
    {
      "inputs": [
        {
          "internalType": "address",
          "name": "account",
          "type": "address"
        }
      ],
      "name": "balanceOf",
      "outputs": [
        {
          "internalType": "uint256",
          "name": "",
          "type": "uint256"
        }
      ],
      "stateMutability": "view",
      "type": "function"
    },
    {
      "inputs": [
        {
          "internalType": "address",
          "name": "account_",
          "type": "address"
        },
        {
          "internalType": "uint256",
          "name": "amount_",
          "type": "uint256"
        }
      ],
      "name": "burn",
      "outputs": [],
      "stateMutability": "nonpayable",
      "type": "function"
    },
    {
      "inputs": [],
      "name": "decimals",
      "outputs": [
        {
          "internalType": "uint8",
          "name": "",
          "type": "uint8"
        }
      ],
      "stateMutability": "view",
      "type": "function"
    },
    {
      "inputs": [
        {
          "internalType": "address",
          "name": "spender",
          "type": "address"
        },
        {
          "internalType": "uint256",
          "name": "subtractedValue",
          "type": "uint256"
        }
      ],
      "name": "decreaseAllowance",
      "outputs": [
        {
          "internalType": "bool",
          "name": "",
          "type": "bool"
        }
      ],
      "stateMutability": "nonpayable",
      "type": "function"
    },
    {
      "inputs": [],
      "name": "getRemoteToken",
      "outputs": [
        {
          "internalType": "address",
          "name": "",
          "type": "address"
        }
      ],
      "stateMutability": "view",
      "type": "function"
    },
    {
      "inputs": [],
      "name": "getSwiftGate",
      "outputs": [
        {
          "internalType": "address",
          "name": "",
          "type": "address"
        }
      ],
      "stateMutability": "view",
      "type": "function"
    },
    {
      "inputs": [
        {
          "internalType": "address",
          "name": "spender",
          "type": "address"
        },
        {
          "internalType": "uint256",
          "name": "addedValue",
          "type": "uint256"
        }
      ],
      "name": "increaseAllowance",
      "outputs": [
        {
          "internalType": "bool",
          "name": "",
          "type": "bool"
        }
      ],
      "stateMutability": "nonpayable",
      "type": "function"
    },
    {
      "inputs": [
        {
          "internalType": "string",
          "name": "name_",
          "type": "string"
        },
        {
          "internalType": "string",
          "name": "symbol_",
          "type": "string"
        },
        {
          "internalType": "address",
          "name": "swiftGate_",
          "type": "address"
        },
        {
          "internalType": "address",
          "name": "remoteToken_",
          "type": "address"
        }
      ],
      "name": "initialize",
      "outputs": [],
      "stateMutability": "nonpayable",
      "type": "function"
    },
    {
      "inputs": [
        {
          "internalType": "address",
          "name": "account_",
          "type": "address"
        },
        {
          "internalType": "uint256",
          "name": "amount_",
          "type": "uint256"
        }
      ],
      "name": "mint",
      "outputs": [],
      "stateMutability": "nonpayable",
      "type": "function"
    },
    {
      "inputs": [],
      "name": "name",
      "outputs": [
        {
          "internalType": "string",
          "name": "",
          "type": "string"
        }
      ],
      "stateMutability": "view",
      "type": "function"
    },
    {
      "inputs": [],
      "name": "symbol",
      "outputs": [
        {
          "internalType": "string",
          "name": "",
          "type": "string"
        }
      ],
      "stateMutability": "view",
      "type": "function"
    },
    {
      "inputs": [],
      "name": "totalSupply",
      "outputs": [
        {
          "internalType": "uint256",
          "name": "",
          "type": "uint256"
        }
      ],
      "stateMutability": "view",
      "type": "function"
    },
    {
      "inputs": [
        {
          "internalType": "address",
          "name": "to",
          "type": "address"
        },
        {
          "internalType": "uint256",
          "name": "amount",
          "type": "uint256"
        }
      ],
      "name": "transfer",
      "outputs": [
        {
          "internalType": "bool",
          "name": "",
          "type": "bool"
        }
      ],
      "stateMutability": "nonpayable",
      "type": "function"
    },
    {
      "inputs": [
        {
          "internalType": "address",
          "name": "from",
          "type": "address"
        },
        {
          "internalType": "address",
          "name": "to",
          "type": "address"
        },
        {
          "internalType": "uint256",
          "name": "amount",
          "type": "uint256"
        }
      ],
      "name": "transferFrom",
      "outputs": [
        {
          "internalType": "bool",
          "name": "",
          "type": "bool"
        }
      ],
      "stateMutability": "nonpayable",
      "type": "function"
    }
  ],
  "bytecode": "0x608060405234801561001057600080fd5b50610f0a806100206000396000f3fe608060405234801561001057600080fd5b50600436106101005760003560e01c80638f15b41411610097578063a530226c11610066578063a530226c1461020c578063a9059cbb14610231578063c2b6291314610244578063dd62ed3e1461025557600080fd5b80638f15b414146101cb57806395d89b41146101de5780639dc29fac146101e6578063a457c2d7146101f957600080fd5b8063313ce567116100d3578063313ce5671461016b578063395093511461017a57806340c10f191461018d57806370a08231146101a257600080fd5b806306fdde0314610105578063095ea7b31461012357806318160ddd1461014657806323b872dd14610158575b600080fd5b61010d610268565b60405161011a9190610ad3565b60405180910390f35b610136610131366004610b3d565b6102fa565b604051901515815260200161011a565b6035545b60405190815260200161011a565b610136610166366004610b67565b610314565b6040516012815260200161011a565b610136610188366004610b3d565b610338565b6101a061019b366004610b3d565b61035a565b005b61014a6101b0366004610ba3565b6001600160a01b031660009081526033602052604090205490565b6101a06101d9366004610c68565b61039a565b61010d6104e7565b6101a06101f4366004610b3d565b6104f6565b610136610207366004610b3d565b61052d565b6065546001600160a01b03165b6040516001600160a01b03909116815260200161011a565b61013661023f366004610b3d565b6105a8565b6066546001600160a01b0316610219565b61014a610263366004610ced565b6105b6565b60606036805461027790610d20565b80601f01602080910402602001604051908101604052809291908181526020018280546102a390610d20565b80156102f05780601f106102c5576101008083540402835291602001916102f0565b820191906000526020600020905b8154815290600101906020018083116102d357829003601f168201915b5050505050905090565b6000336103088185856105e1565b60019150505b92915050565b600033610322858285610706565b61032d858585610780565b506001949350505050565b60003361030881858561034b83836105b6565b6103559190610d5a565b6105e1565b6065546001600160a01b0316331461038c576040516315bfc60960e31b81523360048201526024015b60405180910390fd5b6103968282610856565b5050565b600054610100900460ff16158080156103ba5750600054600160ff909116105b806103d45750303b1580156103d4575060005460ff166001145b6104375760405162461bcd60e51b815260206004820152602e60248201527f496e697469616c697a61626c653a20636f6e747261637420697320616c72656160448201526d191e481a5b9a5d1a585b1a5e995960921b6064820152608401610383565b6000805460ff19166001179055801561045a576000805461ff0019166101001790555b606580546001600160a01b0319166001600160a01b03851617905561047f85856108b8565b606680546001600160a01b0319166001600160a01b03841617905580156104e0576000805461ff0019169055604051600181527f7f26b83ff96e1f2b6a682f133852f6798a09c465da95921460cefb38474024989060200160405180910390a15b5050505050565b60606037805461027790610d20565b6065546001600160a01b03163314610523576040516315bfc60960e31b8152336004820152602401610383565b61039682826108e9565b6000338161053b82866105b6565b90508381101561059b5760405162461bcd60e51b815260206004820152602560248201527f45524332303a2064656372656173656420616c6c6f77616e63652062656c6f77604482015264207a65726f60d81b6064820152608401610383565b61032d82868684036105e1565b600033610308818585610780565b6001600160a01b03918216600090815260346020908152604080832093909416825291909152205490565b6001600160a01b0383166106435760405162461bcd60e51b8152602060048201526024808201527f45524332303a20617070726f76652066726f6d20746865207a65726f206164646044820152637265737360e01b6064820152608401610383565b6001600160a01b0382166106a45760405162461bcd60e51b815260206004820152602260248201527f45524332303a20617070726f766520746f20746865207a65726f206164647265604482015261737360f01b6064820152608401610383565b6001600160a01b0383811660008181526034602090815260408083209487168084529482529182902085905590518481527f8c5be1e5ebec7d5bd14f71427d1e84f3dd0314c0f7b2291e5b200ac8c7c3b92591015b60405180910390a3505050565b600061071284846105b6565b9050600019811461077a578181101561076d5760405162461bcd60e51b815260206004820152601d60248201527f45524332303a20696e73756666696369656e7420616c6c6f77616e63650000006044820152606401610383565b61077a84848484036105e1565b50505050565b6001600160a01b0383166107e45760405162461bcd60e51b815260206004820152602560248201527f45524332303a207472616e736665722066726f6d20746865207a65726f206164604482015264647265737360d81b6064820152608401610383565b6001600160a01b0382166108465760405162461bcd60e51b815260206004820152602360248201527f45524332303a207472616e7366657220746f20746865207a65726f206164647260448201526265737360e81b6064820152608401610383565b610851838383610951565b505050565b6001600160a01b0382166108ac5760405162461bcd60e51b815260206004820152601f60248201527f45524332303a206d696e7420746f20746865207a65726f2061646472657373006044820152606401610383565b61039660008383610951565b600054610100900460ff166108df5760405162461bcd60e51b815260040161038390610d7b565b6103968282610a93565b6001600160a01b0382166109495760405162461bcd60e51b815260206004820152602160248201527f45524332303a206275726e2066726f6d20746865207a65726f206164647265736044820152607360f81b6064820152608401610383565b610396826000835b6001600160a01b03831661097c5780603560008282546109719190610d5a565b90915550610a139050565b6001600160a01b038316600090815260336020526040902054818110156109f45760405162461bcd60e51b815260206004820152602660248201527f45524332303a207472616e7366657220616d6f756e7420657863656564732062604482015265616c616e636560d01b6064820152608401610383565b6001600160a01b03841660009081526033602052604090209082900390555b6001600160a01b038216610a2f57603580548290039055610a4e565b6001600160a01b03821660009081526033602052604090208054820190555b816001600160a01b0316836001600160a01b03167fddf252ad1be2c89b69c2b068fc378daa952ba7f163c4a11628f55a4df523b3ef836040516106f991815260200190565b600054610100900460ff16610aba5760405162461bcd60e51b815260040161038390610d7b565b6036610ac68382610e14565b5060376108518282610e14565b600060208083528351808285015260005b81811015610b0057858101830151858201604001528201610ae4565b506000604082860101526040601f19601f8301168501019250505092915050565b80356001600160a01b0381168114610b3857600080fd5b919050565b60008060408385031215610b5057600080fd5b610b5983610b21565b946020939093013593505050565b600080600060608486031215610b7c57600080fd5b610b8584610b21565b9250610b9360208501610b21565b9150604084013590509250925092565b600060208284031215610bb557600080fd5b610bbe82610b21565b9392505050565b634e487b7160e01b600052604160045260246000fd5b600082601f830112610bec57600080fd5b813567ffffffffffffffff80821115610c0757610c07610bc5565b604051601f8301601f19908116603f01168101908282118183101715610c2f57610c2f610bc5565b81604052838152866020858801011115610c4857600080fd5b836020870160208301376000602085830101528094505050505092915050565b60008060008060808587031215610c7e57600080fd5b843567ffffffffffffffff80821115610c9657600080fd5b610ca288838901610bdb565b95506020870135915080821115610cb857600080fd5b50610cc587828801610bdb565b935050610cd460408601610b21565b9150610ce260608601610b21565b905092959194509250565b60008060408385031215610d0057600080fd5b610d0983610b21565b9150610d1760208401610b21565b90509250929050565b600181811c90821680610d3457607f821691505b602082108103610d5457634e487b7160e01b600052602260045260246000fd5b50919050565b8082018082111561030e57634e487b7160e01b600052601160045260246000fd5b6020808252602b908201527f496e697469616c697a61626c653a20636f6e7472616374206973206e6f74206960408201526a6e697469616c697a696e6760a81b606082015260800190565b601f82111561085157600081815260208120601f850160051c81016020861015610ded5750805b601f850160051c820191505b81811015610e0c57828155600101610df9565b505050505050565b815167ffffffffffffffff811115610e2e57610e2e610bc5565b610e4281610e3c8454610d20565b84610dc6565b602080601f831160018114610e775760008415610e5f5750858301515b600019600386901b1c1916600185901b178555610e0c565b600085815260208120601f198616915b82811015610ea657888601518255948401946001909101908401610e87565b5085821015610ec45787850151600019600388901b60f8161c191681555b5050505050600190811b0190555056fea264697066735822122077dc94c6bba07a38045e50aa9e4d94570b19ee5dbc8c2b2c05c57bde5c8d8f1864736f6c63430008130033",
  "linkReferences": {},
  "deployedLinkReferences": {}
}