{
  "_format": "hh-sol-artifact-1",
  "contractName": "SwiftGate",
  "sourceName": "src/SwiftGate.sol",
  "abi": [
    {
      "inputs": [],
      "stateMutability": "nonpayable",
      "type": "constructor"
    },
    {
      "inputs": [],
      "name": "ChainIdAlreadySetError",
      "type": "error"
    },
    {
      "inputs": [],
      "name": "DuplicateSignatureError",
      "type": "error"
    },
    {
      "inputs": [],
      "name": "InvalidSignatureError",
      "type": "error"
    },
    {
      "inputs": [],
      "name": "LengthMismatchError",
      "type": "error"
    },
    {
      "inputs": [],
      "name": "NotEnoughSignaturesError",
      "type": "error"
    },
    {
      "inputs": [
        {
          "internalType": "uint16",
          "name": "chainId",
          "type": "uint16"
        },
        {
          "internalType": "address",
          "name": "token",
          "type": "address"
        }
      ],
      "name": "UnsupportedTokenError",
      "type": "error"
    },
    {
      "inputs": [
        {
          "internalType": "uint256",
          "name": "chainId",
          "type": "uint256"
        }
      ],
      "name": "WrontDstChainError",
      "type": "error"
    },
    {
      "inputs": [],
      "name": "ZeroAddressError",
      "type": "error"
    },
    {
      "inputs": [],
      "name": "ZeroAmountError",
      "type": "error"
    },
    {
      "anonymous": false,
      "inputs": [
        {
          "indexed": false,
          "internalType": "address",
          "name": "token",
          "type": "address"
        },
        {
          "indexed": false,
          "internalType": "address",
          "name": "remoteToken_",
          "type": "address"
        },
        {
          "indexed": false,
          "internalType": "uint256",
          "name": "amount",
          "type": "uint256"
        },
        {
          "indexed": false,
          "internalType": "address",
          "name": "receiver",
          "type": "address"
        },
        {
          "indexed": false,
          "internalType": "uint16",
          "name": "dstChain",
          "type": "uint16"
        },
        {
          "indexed": false,
          "internalType": "bool",
          "name": "isSingle",
          "type": "bool"
        }
      ],
      "name": "SwiftSend",
      "type": "event"
    },
    {
      "inputs": [
        {
          "internalType": "uint16",
          "name": "chainId_",
          "type": "uint16"
        },
        {
          "internalType": "address",
          "name": "token_",
          "type": "address"
        },
        {
          "components": [
            {
              "internalType": "uint8",
              "name": "v",
              "type": "uint8"
            },
            {
              "internalType": "bytes32",
              "name": "r",
              "type": "bytes32"
            },
            {
              "internalType": "bytes32",
              "name": "s",
              "type": "bytes32"
            }
          ],
          "internalType": "struct SwiftGate.Signature[]",
          "name": "signatures_",
          "type": "tuple[]"
        },
        {
          "internalType": "bytes32",
          "name": "salt_",
          "type": "bytes32"
        }
      ],
      "name": "addDstToken",
      "outputs": [],
      "stateMutability": "nonpayable",
      "type": "function"
    },
    {
      "inputs": [
        {
          "internalType": "uint16",
          "name": "chainId_",
          "type": "uint16"
        },
        {
          "internalType": "address",
          "name": "token_",
          "type": "address"
        },
        {
          "internalType": "string",
          "name": "name_",
          "type": "string"
        },
        {
          "internalType": "string",
          "name": "symbol_",
          "type": "string"
        },
        {
          "components": [
            {
              "internalType": "uint8",
              "name": "v",
              "type": "uint8"
            },
            {
              "internalType": "bytes32",
              "name": "r",
              "type": "bytes32"
            },
            {
              "internalType": "bytes32",
              "name": "s",
              "type": "bytes32"
            }
          ],
          "internalType": "struct SwiftGate.Signature[]",
          "name": "signatures_",
          "type": "tuple[]"
        },
        {
          "internalType": "bytes32",
          "name": "salt_",
          "type": "bytes32"
        }
      ],
      "name": "addWrappedToken",
      "outputs": [],
      "stateMutability": "nonpayable",
      "type": "function"
    },
    {
      "inputs": [
        {
          "internalType": "address",
          "name": "token_",
          "type": "address"
        },
        {
          "internalType": "uint256",
          "name": "amount_",
          "type": "uint256"
        },
        {
          "components": [
            {
              "internalType": "uint8",
              "name": "v",
              "type": "uint8"
            },
            {
              "internalType": "bytes32",
              "name": "r",
              "type": "bytes32"
            },
            {
              "internalType": "bytes32",
              "name": "s",
              "type": "bytes32"
            }
          ],
          "internalType": "struct SwiftGate.Signature[]",
          "name": "signatures_",
          "type": "tuple[]"
        },
        {
          "internalType": "bytes32",
          "name": "salt_",
          "type": "bytes32"
        }
      ],
      "name": "depositToAaveV3",
      "outputs": [],
      "stateMutability": "nonpayable",
      "type": "function"
    },
    {
      "inputs": [],
      "name": "getAaveV3LendingPool",
      "outputs": [
        {
          "internalType": "address",
          "name": "",
          "type": "address"
        }
      ],
      "stateMutability": "view",
      "type": "function"
    },
    {
      "inputs": [],
      "name": "getChainId",
      "outputs": [
        {
          "internalType": "uint256",
          "name": "",
          "type": "uint256"
        }
      ],
      "stateMutability": "view",
      "type": "function"
    },
    {
      "inputs": [
        {
          "internalType": "uint16",
          "name": "chainId_",
          "type": "uint16"
        }
      ],
      "name": "getFeeIfBatchedOfChainId",
      "outputs": [
        {
          "internalType": "uint256",
          "name": "",
          "type": "uint256"
        }
      ],
      "stateMutability": "view",
      "type": "function"
    },
    {
      "inputs": [
        {
          "internalType": "uint16",
          "name": "chainId_",
          "type": "uint16"
        }
      ],
      "name": "getFeeOfChainId",
      "outputs": [
        {
          "internalType": "uint256",
          "name": "",
          "type": "uint256"
        }
      ],
      "stateMutability": "view",
      "type": "function"
    },
    {
      "inputs": [],
      "name": "getMinSignatures",
      "outputs": [
        {
          "internalType": "uint256",
          "name": "",
          "type": "uint256"
        }
      ],
      "stateMutability": "view",
      "type": "function"
    },
    {
      "inputs": [
        {
          "internalType": "address",
          "name": "wrappedToken_",
          "type": "address"
        }
      ],
      "name": "getRemoteTokenOf",
      "outputs": [
        {
          "internalType": "address",
          "name": "",
          "type": "address"
        }
      ],
      "stateMutability": "view",
      "type": "function"
    },
    {
      "inputs": [],
      "name": "getTokenFactory",
      "outputs": [
        {
          "internalType": "address",
          "name": "",
          "type": "address"
        }
      ],
      "stateMutability": "view",
      "type": "function"
    },
    {
      "inputs": [
        {
          "internalType": "uint16",
          "name": "chainId_",
          "type": "uint16"
        },
        {
          "internalType": "address",
          "name": "token_",
          "type": "address"
        }
      ],
      "name": "getWrappedToken",
      "outputs": [
        {
          "internalType": "address",
          "name": "",
          "type": "address"
        }
      ],
      "stateMutability": "view",
      "type": "function"
    },
    {
      "inputs": [
        {
          "internalType": "uint16",
          "name": "chainId_",
          "type": "uint16"
        },
        {
          "internalType": "address",
          "name": "aaveV3",
          "type": "address"
        },
        {
          "internalType": "address",
          "name": "aaveV3RewardsController_",
          "type": "address"
        },
        {
          "internalType": "address[]",
          "name": "governors_",
          "type": "address[]"
        },
        {
          "internalType": "uint256",
          "name": "minSignatures_",
          "type": "uint256"
        }
      ],
      "name": "initialize",
      "outputs": [],
      "stateMutability": "nonpayable",
      "type": "function"
    },
    {
      "inputs": [
        {
          "internalType": "uint16",
          "name": "chainId_",
          "type": "uint16"
        },
        {
          "internalType": "address",
          "name": "token_",
          "type": "address"
        }
      ],
      "name": "isDstToken",
      "outputs": [
        {
          "internalType": "bool",
          "name": "",
          "type": "bool"
        }
      ],
      "stateMutability": "view",
      "type": "function"
    },
    {
      "inputs": [
        {
          "internalType": "address",
          "name": "account_",
          "type": "address"
        }
      ],
      "name": "isGovernor",
      "outputs": [
        {
          "internalType": "bool",
          "name": "",
          "type": "bool"
        }
      ],
      "stateMutability": "view",
      "type": "function"
    },
    {
      "inputs": [
        {
          "internalType": "uint16",
          "name": "chainId_",
          "type": "uint16"
        },
        {
          "internalType": "uint256",
          "name": "feeIfBatched_",
          "type": "uint256"
        },
        {
          "components": [
            {
              "internalType": "uint8",
              "name": "v",
              "type": "uint8"
            },
            {
              "internalType": "bytes32",
              "name": "r",
              "type": "bytes32"
            },
            {
              "internalType": "bytes32",
              "name": "s",
              "type": "bytes32"
            }
          ],
          "internalType": "struct SwiftGate.Signature[]",
          "name": "signatures_",
          "type": "tuple[]"
        },
        {
          "internalType": "bytes32",
          "name": "salt_",
          "type": "bytes32"
        }
      ],
      "name": "setFeeIfBatchedOfChainId",
      "outputs": [],
      "stateMutability": "nonpayable",
      "type": "function"
    },
    {
      "inputs": [
        {
          "internalType": "uint16",
          "name": "chainId_",
          "type": "uint16"
        },
        {
          "internalType": "uint256",
          "name": "fee_",
          "type": "uint256"
        },
        {
          "components": [
            {
              "internalType": "uint8",
              "name": "v",
              "type": "uint8"
            },
            {
              "internalType": "bytes32",
              "name": "r",
              "type": "bytes32"
            },
            {
              "internalType": "bytes32",
              "name": "s",
              "type": "bytes32"
            }
          ],
          "internalType": "struct SwiftGate.Signature[]",
          "name": "signatures_",
          "type": "tuple[]"
        },
        {
          "internalType": "bytes32",
          "name": "salt_",
          "type": "bytes32"
        }
      ],
      "name": "setFeeOfChainId",
      "outputs": [],
      "stateMutability": "nonpayable",
      "type": "function"
    },
    {
      "inputs": [
        {
          "internalType": "address[]",
          "name": "governors_",
          "type": "address[]"
        },
        {
          "internalType": "bool[]",
          "name": "set_",
          "type": "bool[]"
        },
        {
          "components": [
            {
              "internalType": "uint8",
              "name": "v",
              "type": "uint8"
            },
            {
              "internalType": "bytes32",
              "name": "r",
              "type": "bytes32"
            },
            {
              "internalType": "bytes32",
              "name": "s",
              "type": "bytes32"
            }
          ],
          "internalType": "struct SwiftGate.Signature[]",
          "name": "signatures_",
          "type": "tuple[]"
        },
        {
          "internalType": "bytes32",
          "name": "salt_",
          "type": "bytes32"
        }
      ],
      "name": "setGovernors",
      "outputs": [],
      "stateMutability": "nonpayable",
      "type": "function"
    },
    {
      "inputs": [
        {
          "internalType": "uint256",
          "name": "minSignatures_",
          "type": "uint256"
        },
        {
          "components": [
            {
              "internalType": "uint8",
              "name": "v",
              "type": "uint8"
            },
            {
              "internalType": "bytes32",
              "name": "r",
              "type": "bytes32"
            },
            {
              "internalType": "bytes32",
              "name": "s",
              "type": "bytes32"
            }
          ],
          "internalType": "struct SwiftGate.Signature[]",
          "name": "signatures_",
          "type": "tuple[]"
        },
        {
          "internalType": "bytes32",
          "name": "salt_",
          "type": "bytes32"
        }
      ],
      "name": "setMinSignatures",
      "outputs": [],
      "stateMutability": "nonpayable",
      "type": "function"
    },
    {
      "inputs": [
        {
          "components": [
            {
              "internalType": "address",
              "name": "token",
              "type": "address"
            },
            {
              "internalType": "uint256",
              "name": "amount",
              "type": "uint256"
            },
            {
              "internalType": "address",
              "name": "receiver",
              "type": "address"
            },
            {
              "internalType": "uint16",
              "name": "srcChain",
              "type": "uint16"
            },
            {
              "internalType": "uint16",
              "name": "dstChain",
              "type": "uint16"
            }
          ],
          "internalType": "struct SwiftGate.SwReceiveParams[]",
          "name": "params_",
          "type": "tuple[]"
        },
        {
          "components": [
            {
              "internalType": "uint8",
              "name": "v",
              "type": "uint8"
            },
            {
              "internalType": "bytes32",
              "name": "r",
              "type": "bytes32"
            },
            {
              "internalType": "bytes32",
              "name": "s",
              "type": "bytes32"
            }
          ],
          "internalType": "struct SwiftGate.Signature[]",
          "name": "signatures_",
          "type": "tuple[]"
        },
        {
          "internalType": "bytes32",
          "name": "salt_",
          "type": "bytes32"
        }
      ],
      "name": "swiftReceive",
      "outputs": [],
      "stateMutability": "nonpayable",
      "type": "function"
    },
    {
      "inputs": [
        {
          "internalType": "address",
          "name": "token_",
          "type": "address"
        },
        {
          "internalType": "uint256",
          "name": "amount_",
          "type": "uint256"
        },
        {
          "internalType": "address",
          "name": "receiver_",
          "type": "address"
        },
        {
          "internalType": "uint16",
          "name": "dstChain_",
          "type": "uint16"
        },
        {
          "internalType": "bool",
          "name": "isSingle_",
          "type": "bool"
        }
      ],
      "name": "swiftSend",
      "outputs": [],
      "stateMutability": "nonpayable",
      "type": "function"
    },
    {
      "inputs": [
        {
          "internalType": "address",
          "name": "token_",
          "type": "address"
        },
        {
          "internalType": "address",
          "name": "aToken_",
          "type": "address"
        },
        {
          "internalType": "uint256",
          "name": "amount_",
          "type": "uint256"
        },
        {
          "internalType": "address",
          "name": "receiver_",
          "type": "address"
        },
        {
          "components": [
            {
              "internalType": "uint8",
              "name": "v",
              "type": "uint8"
            },
            {
              "internalType": "bytes32",
              "name": "r",
              "type": "bytes32"
            },
            {
              "internalType": "bytes32",
              "name": "s",
              "type": "bytes32"
            }
          ],
          "internalType": "struct SwiftGate.Signature[]",
          "name": "signatures_",
          "type": "tuple[]"
        },
        {
          "internalType": "bytes32",
          "name": "salt_",
          "type": "bytes32"
        }
      ],
      "name": "withdrawFromAaveV3",
      "outputs": [],
      "stateMutability": "nonpayable",
      "type": "function"
    }
  ],
  "bytecode": "0x60a060405234801561001057600080fd5b5060405161001d9061004b565b604051809103906000f080158015610039573d6000803e3d6000fd5b506001600160a01b0316608052610058565b61141a80611e1f83390190565b608051611da561007a600039600081816102c901526104de0152611da56000f3fe608060405234801561001057600080fd5b50600436106101375760003560e01c806363743d3b116100b8578063b0c474f71161007c578063b0c474f714610313578063c538252114610326578063c596fb8314610339578063dd3b21c61461035d578063e12f12a014610370578063e43581b81461038357600080fd5b806363743d3b1461028857806390e0dd05146102b4578063925d6ba2146102c7578063a4d8a618146102ed578063afa95c771461030057600080fd5b80632ef0b1c5116100ff5780632ef0b1c5146101ca5780633408e470146101dd57806343a61e82146101e957806357c50465146102265780635b88715b1461027557600080fd5b80630c30beb41461013c5780631eb36178146101515780631ebde38f1461016857806321db14e21461017b5780632e39feb61461019f575b600080fd5b61014f61014a36600461132f565b6103af565b005b6009545b6040519081526020015b60405180910390f35b61014f6101763660046114c5565b610482565b61015561018936600461157f565b61ffff1660009081526004602052604090205490565b6000546201000090046001600160a01b03165b6040516001600160a01b03909116815260200161015f565b61014f6101d83660046115a1565b6105b9565b60005461ffff16610155565b6101b26101f7366004611602565b61ffff9190911660009081526006602090815260408083206001600160a01b0394851684529091529020541690565b610265610234366004611602565b61ffff821660009081526008602090815260408083206001600160a01b038516845290915290205460ff1692915050565b604051901515815260200161015f565b61014f6102833660046115a1565b6105f4565b6101b2610296366004611639565b6001600160a01b039081166000908152600760205260409020541690565b61014f6102c236600461169a565b61062f565b7f00000000000000000000000000000000000000000000000000000000000000006101b2565b61014f6102fb36600461173c565b610718565b61014f61030e3660046117b0565b6108bc565b61014f6103213660046117d3565b610a06565b61014f61033436600461181f565b610a8d565b61015561034736600461157f565b61ffff1660009081526003602052604090205490565b61014f61036b366004611871565b610aca565b61014f61037e366004611920565b610ee6565b610265610391366004611639565b6001600160a01b031660009081526002602052604090205460ff1690565b60005461ffff16156103d457604051631d335e3f60e01b815260040160405180910390fd5b600080546001600160a01b0380871662010000026001600160b01b031990921661ffff891617919091178255600180549186166001600160a01b031990921691909117905560098290555b825181101561047a5760016002600085848151811061044057610440611986565b6020908102919091018101516001600160a01b03168252810191909152604001600020805460ff191691151591909117905560010161041f565b505050505050565b6000546040516104c4916104a791849161ffff16908b908b908b908b906020016119c0565b60405160208183030381529060405280519060200120848461110b565b6040516316a709c960e21b81526000906001600160a01b037f00000000000000000000000000000000000000000000000000000000000000001690635a9c27249061051790899089908c90600401611a60565b6020604051808303816000875af1158015610536573d6000803e3d6000fd5b505050506040513d601f19601f8201168201806040525081019061055a9190611a9e565b61ffff90981660009081526006602090815260408083206001600160a01b039a8b1680855290835281842080549b909c166001600160a01b03199b8c168117909c559a8352600790915290208054909716909717909555505050505050565b6000546040516105da916104a791849161ffff169089908990602001611abb565b50505061ffff909116600090815260036020526040902055565b600054604051610615916104a791849161ffff169089908990602001611abb565b50505061ffff909116600090815260046020526040902055565b858414158061063e5750838214155b1561065c57604051637736a16d60e01b815260040160405180910390fd5b600054604051610681916104a791849161ffff16908b908b908b908b90602001611ae8565b60005b8681101561070e5785858281811061069e5761069e611986565b90506020020160208101906106b39190611b72565b600260008a8a858181106106c9576106c9611986565b90506020020160208101906106de9190611639565b6001600160a01b031681526020810191909152604001600020805460ff1916911515919091179055600101610684565b5050505050505050565b600054604080516020810184905260f09290921b6001600160f01b03191690820152606088811b6001600160601b03199081166042840152605683018890529086901b16607682015261076d90608a016104a7565b600054604051631a4ca37b60e21b81526001600160a01b03898116600483015260248201889052868116604483015262010000909204909116906369328dec906064016020604051808303816000875af11580156107cf573d6000803e3d6000fd5b505050506040513d601f19601f820116820180604052508101906107f39190611b8f565b5060408051600180825281830190925260009160208083019080368337019050509050868160008151811061082a5761082a611986565b6001600160a01b03928316602091820292909201015260015460405163bb492bf560e01b815291169063bb492bf5906108699084908990600401611ba8565b6000604051808303816000875af1158015610888573d6000803e3d6000fd5b505050506040513d6000823e601f3d908101601f191682016040526108b09190810190611c6b565b50505050505050505050565b600054604080516020810184905260f09290921b6001600160f01b03191690820152606086901b6001600160601b031916604282015260568101859052610905906076016104a7565b60005460405163095ea7b360e01b8152620100009091046001600160a01b0390811660048301526024820186905286169063095ea7b3906044016020604051808303816000875af115801561095e573d6000803e3d6000fd5b505050506040513d601f19601f820116820180604052508101906109829190611d2f565b506000805460405163617ba03760e01b81526001600160a01b038881166004830152602482018890523060448301526064820193909352620100009091049091169063617ba03790608401600060405180830381600087803b1580156109e757600080fd5b505af11580156109fb573d6000803e3d6000fd5b505050505050505050565b60005460408051602081018490526001600160f01b031960f093841b8116928201929092529187901b1660428201526001600160601b0319606086901b166044820152610a55906058016104a7565b50505061ffff90911660009081526008602090815260408083206001600160a01b03909416835292905220805460ff19166001179055565b600054604080516020810184905260f09290921b6001600160f01b0319169082015260428101859052610ac2906062016104a7565b505050600955565b8060005b85811015610eda5760005461ffff16878783818110610aef57610aef611986565b905060a002016080016020810190610b07919061157f565b61ffff1614610b5f57868682818110610b2257610b22611986565b905060a002016080016020810190610b3a919061157f565b604051632ed621eb60e01b815261ffff90911660048201526024015b60405180910390fd5b81878783818110610b7257610b72611986565b610b8892602060a0909202019081019150611639565b888884818110610b9a57610b9a611986565b905060a0020160200135898985818110610bb657610bb6611986565b905060a002016040016020810190610bce9190611639565b8a8a86818110610be057610be0611986565b905060a002016060016020810190610bf8919061157f565b8b8b87818110610c0a57610c0a611986565b905060a002016080016020810190610c22919061157f565b6040805160208101979097526001600160601b0319606096871b81169188019190915260548701949094529190931b90911660748401526001600160f01b031960f092831b81166088850152911b16608a820152608c01604051602081830303815290604052805190602001209150600060066000898985818110610ca957610ca9611986565b905060a002016060016020810190610cc1919061157f565b61ffff1681526020019081526020016000206000898985818110610ce757610ce7611986565b610cfd92602060a0909202019081019150611639565b6001600160a01b0390811682526020820192909252604001600020541690508015610ddf57806001600160a01b03166340c10f19898985818110610d4357610d43611986565b905060a002016040016020810190610d5b9190611639565b8a8a86818110610d6d57610d6d611986565b905060a00201602001356040518363ffffffff1660e01b8152600401610da89291906001600160a01b03929092168252602082015260400190565b600060405180830381600087803b158015610dc257600080fd5b505af1158015610dd6573d6000803e3d6000fd5b50505050610ed1565b878783818110610df157610df1611986565b610e0792602060a0909202019081019150611639565b6001600160a01b031663a9059cbb898985818110610e2757610e27611986565b905060a002016040016020810190610e3f9190611639565b8a8a86818110610e5157610e51611986565b905060a00201602001356040518363ffffffff1660e01b8152600401610e8c9291906001600160a01b03929092168252602082015260400190565b6020604051808303816000875af1158015610eab573d6000803e3d6000fd5b505050506040513d601f19601f82011682018060405250810190610ecf9190611d2f565b505b50600101610ace565b5061047a81858561110b565b6001600160a01b038316610f0d57604051633efa09af60e01b815260040160405180910390fd5b83600003610f2e57604051636e0ccc0760e01b815260040160405180910390fd5b6001600160a01b038086166000908152600760205260409020541680158015610f7f575061ffff831660009081526008602090815260408083206001600160a01b038a16845290915290205460ff16155b15610fb2576040516355defc6560e01b815261ffff841660048201526001600160a01b0387166024820152604401610b56565b6001600160a01b0381161561102657604051632770a7eb60e21b8152336004820152602481018690526001600160a01b03871690639dc29fac90604401600060405180830381600087803b15801561100957600080fd5b505af115801561101d573d6000803e3d6000fd5b5050505061109f565b6040516323b872dd60e01b8152336004820152306024820152604481018690526001600160a01b038716906323b872dd906064016020604051808303816000875af1158015611079573d6000803e3d6000fd5b505050506040513d601f19601f8201168201806040525081019061109d9190611d2f565b505b604080516001600160a01b03888116825283811660208301528183018890528616606082015261ffff8516608082015283151560a082015290517fe8b58e99d3bcd2ef9044c1c6d3555911d2ab4850494eef62e6a11339c913caf69181900360c00190a1505050505050565b60008381526005602052604090205460ff161561113b57604051634e5579b960e11b815260040160405180910390fd5b6000838152600560205260409020805460ff191660011790556009548110156111775760405163a3a6cc4960e01b815260040160405180910390fd5b60005b8181101561129157600060018585858581811061119957611199611986565b6111af9260206060909202019081019150611d4c565b8686868181106111c1576111c1611986565b905060600201602001358787878181106111dd576111dd611986565b905060600201604001356040516000815260200160405260405161121d949392919093845260ff9290921660208401526040830152606082015260800190565b6020604051602081039080840390855afa15801561123f573d6000803e3d6000fd5b505060408051601f1901516001600160a01b03811660009081526002602052919091205490925060ff16905061128857604051636cb40d4360e11b815260040160405180910390fd5b5060010161117a565b50505050565b803561ffff811681146112a957600080fd5b919050565b6001600160a01b03811681146112c357600080fd5b50565b634e487b7160e01b600052604160045260246000fd5b604051601f8201601f191681016001600160401b0381118282101715611304576113046112c6565b604052919050565b60006001600160401b03821115611325576113256112c6565b5060051b60200190565b600080600080600060a0868803121561134757600080fd5b61135086611297565b9450602080870135611361816112ae565b94506040870135611371816112ae565b935060608701356001600160401b0381111561138c57600080fd5b8701601f8101891361139d57600080fd5b80356113b06113ab8261130c565b6112dc565b81815260059190911b8201830190838101908b8311156113cf57600080fd5b928401925b828410156113f65783356113e7816112ae565b825292840192908401906113d4565b989b979a509598608001359695505050505050565b600082601f83011261141c57600080fd5b81356001600160401b03811115611435576114356112c6565b611448601f8201601f19166020016112dc565b81815284602083860101111561145d57600080fd5b816020850160208301376000918101602001919091529392505050565b60008083601f84011261148c57600080fd5b5081356001600160401b038111156114a357600080fd5b6020830191508360206060830285010111156114be57600080fd5b9250929050565b600080600080600080600060c0888a0312156114e057600080fd5b6114e988611297565b965060208801356114f9816112ae565b955060408801356001600160401b038082111561151557600080fd5b6115218b838c0161140b565b965060608a013591508082111561153757600080fd5b6115438b838c0161140b565b955060808a013591508082111561155957600080fd5b506115668a828b0161147a565b989b979a5095989497959660a090950135949350505050565b60006020828403121561159157600080fd5b61159a82611297565b9392505050565b6000806000806000608086880312156115b957600080fd5b6115c286611297565b94506020860135935060408601356001600160401b038111156115e457600080fd5b6115f08882890161147a565b96999598509660600135949350505050565b6000806040838503121561161557600080fd5b61161e83611297565b9150602083013561162e816112ae565b809150509250929050565b60006020828403121561164b57600080fd5b813561159a816112ae565b60008083601f84011261166857600080fd5b5081356001600160401b0381111561167f57600080fd5b6020830191508360208260051b85010111156114be57600080fd5b60008060008060008060006080888a0312156116b557600080fd5b87356001600160401b03808211156116cc57600080fd5b6116d88b838c01611656565b909950975060208a01359150808211156116f157600080fd5b6116fd8b838c01611656565b909750955060408a013591508082111561171657600080fd5b506117238a828b0161147a565b989b979a50959894979596606090950135949350505050565b600080600080600080600060c0888a03121561175757600080fd5b8735611762816112ae565b96506020880135611772816112ae565b9550604088013594506060880135611789816112ae565b935060808801356001600160401b038111156117a457600080fd5b6115668a828b0161147a565b6000806000806000608086880312156117c857600080fd5b85356115c2816112ae565b6000806000806000608086880312156117eb57600080fd5b6117f486611297565b94506020860135611804816112ae565b935060408601356001600160401b038111156115e457600080fd5b6000806000806060858703121561183557600080fd5b8435935060208501356001600160401b0381111561185257600080fd5b61185e8782880161147a565b9598909750949560400135949350505050565b60008060008060006060868803121561188957600080fd5b85356001600160401b03808211156118a057600080fd5b818801915088601f8301126118b457600080fd5b8135818111156118c357600080fd5b89602060a0830285010111156118d857600080fd5b6020928301975095509087013590808211156118f357600080fd5b506119008882890161147a565b96999598509660400135949350505050565b80151581146112c357600080fd5b600080600080600060a0868803121561193857600080fd5b8535611943816112ae565b945060208601359350604086013561195a816112ae565b925061196860608701611297565b9150608086013561197881611912565b809150509295509295909350565b634e487b7160e01b600052603260045260246000fd5b60005b838110156119b757818101518382015260200161199f565b50506000910152565b868152600061ffff60f01b808860f01b166020840152808760f01b166022840152506bffffffffffffffffffffffff198560601b1660248301528351611a0d81603885016020880161199c565b835190830190611a2481603884016020880161199c565b0160380198975050505050505050565b60008151808452611a4c81602086016020860161199c565b601f01601f19169290920160200192915050565b606081526000611a736060830186611a34565b8281036020840152611a858186611a34565b91505060018060a01b0383166040830152949350505050565b600060208284031215611ab057600080fd5b815161159a816112ae565b9384526001600160f01b031960f093841b811660208601529190921b166022830152602482015260440190565b8681526000602061ffff60f01b8860f01b1681840152602283018760005b88811015611b34578135611b19816112ae565b6001600160a01b031683529183019190830190600101611b06565b508691905060005b86811015611b63578235611b4f81611912565b151582529183019190830190600101611b3c565b509a9950505050505050505050565b600060208284031215611b8457600080fd5b813561159a81611912565b600060208284031215611ba157600080fd5b5051919050565b604080825283519082018190526000906020906060840190828701845b82811015611bea5781516001600160a01b031684529284019290840190600101611bc5565b5050506001600160a01b039490941692019190915250919050565b600082601f830112611c1657600080fd5b81516020611c266113ab8361130c565b82815260059290921b84018101918181019086841115611c4557600080fd5b8286015b84811015611c605780518352918301918301611c49565b509695505050505050565b60008060408385031215611c7e57600080fd5b82516001600160401b0380821115611c9557600080fd5b818501915085601f830112611ca957600080fd5b81516020611cb96113ab8361130c565b82815260059290921b84018101918181019089841115611cd857600080fd5b948201945b83861015611cff578551611cf0816112ae565b82529482019490820190611cdd565b91880151919650909350505080821115611d1857600080fd5b50611d2585828601611c05565b9150509250929050565b600060208284031215611d4157600080fd5b815161159a81611912565b600060208284031215611d5e57600080fd5b813560ff8116811461159a57600080fdfea26469706673582212202919eb8f2be20cb9dda05058f3d37bc251201479b004d8fd59a32dd30c78356764736f6c6343000813003360c060405234801561001057600080fd5b5060405161001d9061004f565b604051809103906000f080158015610039573d6000803e3d6000fd5b506001600160a01b03166080523360a05261005c565b610f2a806104f083390190565b60805160a05161046b6100856000396000609d015260008181606c015260e7015261046b6000f3fe608060405234801561001057600080fd5b50600436106100365760003560e01c80635a9c27241461003b578063aaf10f421461006a575b600080fd5b61004e6100493660046102e8565b610090565b6040516001600160a01b03909116815260200160405180910390f35b7f000000000000000000000000000000000000000000000000000000000000000061004e565b6000336001600160a01b037f000000000000000000000000000000000000000000000000000000000000000016146100e2576040516315bfc60960e31b81523360048201526024015b60405180910390fd5b6101347f00000000000000000000000000000000000000000000000000000000000000008585604051602001610119929190610390565b604051602081830303815290604052805190602001206101a2565b6040516323c56d0560e21b81529091506001600160a01b03821690638f15b414906101699087908790339088906004016103eb565b600060405180830381600087803b15801561018357600080fd5b505af1158015610197573d6000803e3d6000fd5b505050509392505050565b6000763d602d80600a3d3981f3363d3d373d3d3d363d730000008360601b60e81c176000526e5af43d82803e903d91602b57fd5bf38360781b1760205281603760096000f590506001600160a01b03811661023f5760405162461bcd60e51b815260206004820152601760248201527f455243313136373a2063726561746532206661696c656400000000000000000060448201526064016100d9565b92915050565b634e487b7160e01b600052604160045260246000fd5b600082601f83011261026c57600080fd5b813567ffffffffffffffff8082111561028757610287610245565b604051601f8301601f19908116603f011681019082821181831017156102af576102af610245565b816040528381528660208588010111156102c857600080fd5b836020870160208301376000602085830101528094505050505092915050565b6000806000606084860312156102fd57600080fd5b833567ffffffffffffffff8082111561031557600080fd5b6103218783880161025b565b9450602086013591508082111561033757600080fd5b506103448682870161025b565b92505060408401356001600160a01b038116811461036157600080fd5b809150509250925092565b60005b8381101561038757818101518382015260200161036f565b50506000910152565b600083516103a281846020880161036c565b8351908301906103b681836020880161036c565b01949350505050565b600081518084526103d781602086016020860161036c565b601f01601f19169290920160200192915050565b6080815260006103fe60808301876103bf565b828103602084015261041081876103bf565b6001600160a01b0395861660408501529390941660609092019190915250939250505056fea26469706673582212200b67d28690911fa22a6b25dd247dd0de909621cfad234b20a26849c8d90375e264736f6c63430008130033608060405234801561001057600080fd5b50610f0a806100206000396000f3fe608060405234801561001057600080fd5b50600436106101005760003560e01c80638f15b41411610097578063a530226c11610066578063a530226c1461020c578063a9059cbb14610231578063c2b6291314610244578063dd62ed3e1461025557600080fd5b80638f15b414146101cb57806395d89b41146101de5780639dc29fac146101e6578063a457c2d7146101f957600080fd5b8063313ce567116100d3578063313ce5671461016b578063395093511461017a57806340c10f191461018d57806370a08231146101a257600080fd5b806306fdde0314610105578063095ea7b31461012357806318160ddd1461014657806323b872dd14610158575b600080fd5b61010d610268565b60405161011a9190610ad3565b60405180910390f35b610136610131366004610b3d565b6102fa565b604051901515815260200161011a565b6035545b60405190815260200161011a565b610136610166366004610b67565b610314565b6040516012815260200161011a565b610136610188366004610b3d565b610338565b6101a061019b366004610b3d565b61035a565b005b61014a6101b0366004610ba3565b6001600160a01b031660009081526033602052604090205490565b6101a06101d9366004610c68565b61039a565b61010d6104e7565b6101a06101f4366004610b3d565b6104f6565b610136610207366004610b3d565b61052d565b6065546001600160a01b03165b6040516001600160a01b03909116815260200161011a565b61013661023f366004610b3d565b6105a8565b6066546001600160a01b0316610219565b61014a610263366004610ced565b6105b6565b60606036805461027790610d20565b80601f01602080910402602001604051908101604052809291908181526020018280546102a390610d20565b80156102f05780601f106102c5576101008083540402835291602001916102f0565b820191906000526020600020905b8154815290600101906020018083116102d357829003601f168201915b5050505050905090565b6000336103088185856105e1565b60019150505b92915050565b600033610322858285610706565b61032d858585610780565b506001949350505050565b60003361030881858561034b83836105b6565b6103559190610d5a565b6105e1565b6065546001600160a01b0316331461038c576040516315bfc60960e31b81523360048201526024015b60405180910390fd5b6103968282610856565b5050565b600054610100900460ff16158080156103ba5750600054600160ff909116105b806103d45750303b1580156103d4575060005460ff166001145b6104375760405162461bcd60e51b815260206004820152602e60248201527f496e697469616c697a61626c653a20636f6e747261637420697320616c72656160448201526d191e481a5b9a5d1a585b1a5e995960921b6064820152608401610383565b6000805460ff19166001179055801561045a576000805461ff0019166101001790555b606580546001600160a01b0319166001600160a01b03851617905561047f85856108b8565b606680546001600160a01b0319166001600160a01b03841617905580156104e0576000805461ff0019169055604051600181527f7f26b83ff96e1f2b6a682f133852f6798a09c465da95921460cefb38474024989060200160405180910390a15b5050505050565b60606037805461027790610d20565b6065546001600160a01b03163314610523576040516315bfc60960e31b8152336004820152602401610383565b61039682826108e9565b6000338161053b82866105b6565b90508381101561059b5760405162461bcd60e51b815260206004820152602560248201527f45524332303a2064656372656173656420616c6c6f77616e63652062656c6f77604482015264207a65726f60d81b6064820152608401610383565b61032d82868684036105e1565b600033610308818585610780565b6001600160a01b03918216600090815260346020908152604080832093909416825291909152205490565b6001600160a01b0383166106435760405162461bcd60e51b8152602060048201526024808201527f45524332303a20617070726f76652066726f6d20746865207a65726f206164646044820152637265737360e01b6064820152608401610383565b6001600160a01b0382166106a45760405162461bcd60e51b815260206004820152602260248201527f45524332303a20617070726f766520746f20746865207a65726f206164647265604482015261737360f01b6064820152608401610383565b6001600160a01b0383811660008181526034602090815260408083209487168084529482529182902085905590518481527f8c5be1e5ebec7d5bd14f71427d1e84f3dd0314c0f7b2291e5b200ac8c7c3b92591015b60405180910390a3505050565b600061071284846105b6565b9050600019811461077a578181101561076d5760405162461bcd60e51b815260206004820152601d60248201527f45524332303a20696e73756666696369656e7420616c6c6f77616e63650000006044820152606401610383565b61077a84848484036105e1565b50505050565b6001600160a01b0383166107e45760405162461bcd60e51b815260206004820152602560248201527f45524332303a207472616e736665722066726f6d20746865207a65726f206164604482015264647265737360d81b6064820152608401610383565b6001600160a01b0382166108465760405162461bcd60e51b815260206004820152602360248201527f45524332303a207472616e7366657220746f20746865207a65726f206164647260448201526265737360e81b6064820152608401610383565b610851838383610951565b505050565b6001600160a01b0382166108ac5760405162461bcd60e51b815260206004820152601f60248201527f45524332303a206d696e7420746f20746865207a65726f2061646472657373006044820152606401610383565b61039660008383610951565b600054610100900460ff166108df5760405162461bcd60e51b815260040161038390610d7b565b6103968282610a93565b6001600160a01b0382166109495760405162461bcd60e51b815260206004820152602160248201527f45524332303a206275726e2066726f6d20746865207a65726f206164647265736044820152607360f81b6064820152608401610383565b610396826000835b6001600160a01b03831661097c5780603560008282546109719190610d5a565b90915550610a139050565b6001600160a01b038316600090815260336020526040902054818110156109f45760405162461bcd60e51b815260206004820152602660248201527f45524332303a207472616e7366657220616d6f756e7420657863656564732062604482015265616c616e636560d01b6064820152608401610383565b6001600160a01b03841660009081526033602052604090209082900390555b6001600160a01b038216610a2f57603580548290039055610a4e565b6001600160a01b03821660009081526033602052604090208054820190555b816001600160a01b0316836001600160a01b03167fddf252ad1be2c89b69c2b068fc378daa952ba7f163c4a11628f55a4df523b3ef836040516106f991815260200190565b600054610100900460ff16610aba5760405162461bcd60e51b815260040161038390610d7b565b6036610ac68382610e14565b5060376108518282610e14565b600060208083528351808285015260005b81811015610b0057858101830151858201604001528201610ae4565b506000604082860101526040601f19601f8301168501019250505092915050565b80356001600160a01b0381168114610b3857600080fd5b919050565b60008060408385031215610b5057600080fd5b610b5983610b21565b946020939093013593505050565b600080600060608486031215610b7c57600080fd5b610b8584610b21565b9250610b9360208501610b21565b9150604084013590509250925092565b600060208284031215610bb557600080fd5b610bbe82610b21565b9392505050565b634e487b7160e01b600052604160045260246000fd5b600082601f830112610bec57600080fd5b813567ffffffffffffffff80821115610c0757610c07610bc5565b604051601f8301601f19908116603f01168101908282118183101715610c2f57610c2f610bc5565b81604052838152866020858801011115610c4857600080fd5b836020870160208301376000602085830101528094505050505092915050565b60008060008060808587031215610c7e57600080fd5b843567ffffffffffffffff80821115610c9657600080fd5b610ca288838901610bdb565b95506020870135915080821115610cb857600080fd5b50610cc587828801610bdb565b935050610cd460408601610b21565b9150610ce260608601610b21565b905092959194509250565b60008060408385031215610d0057600080fd5b610d0983610b21565b9150610d1760208401610b21565b90509250929050565b600181811c90821680610d3457607f821691505b602082108103610d5457634e487b7160e01b600052602260045260246000fd5b50919050565b8082018082111561030e57634e487b7160e01b600052601160045260246000fd5b6020808252602b908201527f496e697469616c697a61626c653a20636f6e7472616374206973206e6f74206960408201526a6e697469616c697a696e6760a81b606082015260800190565b601f82111561085157600081815260208120601f850160051c81016020861015610ded5750805b601f850160051c820191505b81811015610e0c57828155600101610df9565b505050505050565b815167ffffffffffffffff811115610e2e57610e2e610bc5565b610e4281610e3c8454610d20565b84610dc6565b602080601f831160018114610e775760008415610e5f5750858301515b600019600386901b1c1916600185901b178555610e0c565b600085815260208120601f198616915b82811015610ea657888601518255948401946001909101908401610e87565b5085821015610ec45787850151600019600388901b60f8161c191681555b5050505050600190811b0190555056fea264697066735822122077dc94c6bba07a38045e50aa9e4d94570b19ee5dbc8c2b2c05c57bde5c8d8f1864736f6c63430008130033",
  "linkReferences": {},
  "deployedLinkReferences": {}
}